:02000000F62FD9
:100F14000800013401340134013494278A279D27C1
:100F2400912F0028831285010730990083169F01B1
:100F340001308500080083120518A12FA22FA32FCA
:100F4400B82F0430F0000130B9270430F00001302C
:100F5400B9270430F0000130B9270430F000013023
:100F6400B92783120518B72FB82FB32F0800F30041
:100F7400F601F60AF401F501E82F73087605031D5E
:100F8400C42FC72F83128514C92F831285107608A6
:100F9400F1007107F60005150D30F200FB30F10089
:100FA400F10BD22FF20BD22FD72F831205110D3054
:100FB400F200FB30F100F10BDD2FF20BDD2FE22FFD
:100FC4000130F4070318F50A0030F5077508803A74
:100FD400F10080307102031DF12F70087402031CAC
:100FE400F42FF52FBF2F08008B27F7008C27F8006C
:0C0FF4008D27F9008E27FA0083018F2F53
:02400E00D430AC
:00000001FF
