:020000000A28CC
:10000800FE00030EF0000A08F1000E280B28F30189
:1000180083014C288B1E112812281C280B1D15281B
:1000280016281C288330831281000B11F301F30A70
:1000380071088A00700E8300FE0E7E0E0900F20021
:1000480083168112640083160108F03981000108C3
:100058007204810083128101080083128501073030
:10006800990083169F0105100230232046200800BE
:100078007308031940284128452801308312850652
:10008800F30108008330831281000B118B160800DE
:10009800312051203C204E280A280B178B170800C6
:02400E00D430AC
:00000001FF
